:100000000C94110A189518950C9487011895189559
:100010001895189518951895189518950C94B70873
:100020001895189518951895189518951895189568
:100030001895189518951895189518951895189558
:100040000C944709189518950C9416090C94AB0953
:100050001895189518951895189518951895189538
:10006000189518951895189574312E7478743D224A
:1000700030303A3030220070616765312E6E2E7656
:10008000616C3D200070616765312E74696D655843
:100090002E76616C3D202020200074782E747874B8
:1000A0003D22203A202022007669732074782C307B
:1000B0000074782E7478743D22203A202022007635
:1000C00069732074782C30007669732074782C3131
:1000D0000074782E7478743D22203A202022007615
:1000E00069732062782C31007669732062782C3134
:1000F000007669732062782C3000766973207078FE
:100100002C30007669732070782C31007431782E91
:100110007478743D224922007431782E7478743DCD
:10012000224D22007431782E7478743D22532200BF
:1001300074782E7478743D222022007669732074BE
:10014000782C31007669732074782C3100766973CD
:100150002074782C3100FFFFFF00300036060900C4
:100160001F0623062506270629062B062D062F0621
:100170003106AB0107B10F7C07B90091B9000160EE
:100180000093B90005E10093B8000895F8942ED0CB
:100190002AD017FFFDCF24D00093BB0014E827D04E
:1001A00022D017FFFDCF1CD02093BB0014E81FD036
:1001B0001AD017FFFDCF14D019D015D017FFFDCFDF
:1001C0000FD001603FD03BD007FFFDCF35D03CD0F2
:1001D00036D007FFFDCF30D00091BB0014E907C037
:1001E0001091B90008951091BC00089514EA10937D
:1001F000BC000895F89444EA4093BC004091BC00D0
:1002000047FFFCCF4091B9001DD019D007FFFDCFAB
:1002100013D02093BB0018D012D007FFFDCF0CD015
:100220001093BB0011D00BD007FFFDCF05D004E920
:100230000093BC00789408950091B900089500914E
:10024000BC0008950093BB0004E80093BC0008952F
:10025000539800916900086000936900E99A0C9432
:10026000BA0010E002C00A5013950A30E0F7129568
:10027000107F012B0895202F22952F701AE0219FC7
:100280000F70000D0895BA93AA93D80122E019D0F7
:1002900012960D9323E015D00D9324E02BD00FD0B0
:1002A0000C93149701E00C9312960C911297002373
:1002B00019F401E011960C93A991B99108950F7367
:1002C000DACF18D0FDCF8A9314D0802F806819D050
:1002D0000B8114D022E017D00C8110D023E013D072
:1002E0000D810CD024E00FD08F770BD0899125960B
:1002F000089520E030E000EA0C94C600B2DF102F31
:100300000895182F20E030E000EA0C94FA008A9358
:10031000FA93EA933A922A921A920A927A936A93F9
:100320005A934A933A932A931A930A938FB70FEAF0
:1003300012E0A9DF8FBF0991199129913991499153
:100340005991699179910990199029903990E99181
:10035000F9918991189520E008EB12E013D021E083
:1003600000EC12E00FD022E008EC12E00BD023E00A
:1003700000ED12E007D024E008ED12E003D025E004
:1003800000EE12E000C0F80102E0209F40E150E0E2
:10039000400D511DD5D20E7F00834F5F5F4FD0D2ED
:1003A0000183008107D229F00A9519F00A9519F006
:1003B00004C003E001C000E002830E2F0895D3D1F2
:1003C000D8010E94830813960C9302D0A0D1B8C123
:1003D00040E050E060E070E008950E94350B6797C0
:1003E0002801F801BCD0012B022B032BF20109F0EC
:1003F0007AC002810A9531F00A95A1F10A9509F4B3
:1004000060C0A9C0C4D059F00A9569F00A9579F086
:100410000A9589F00A9599F00A95A9F018C02A9AC8
:100420000EE012E013C0299A07E112E00FC0289AEB
:1004300000E212E00BC05F9A09E212E007C05E9A88
:1004400002E312E003C05D9A0BE312E093D1F201E4
:1004500000810160A2D0EAE9F0E08AD0E8EAF0E0A9
:1004600081D078C094D059F00A9569F00A9579F056
:100470000A9589F00A9599F00A95A9F018C02A986A
:1004800004E412E013C029980DE412E00FC028988C
:1004900006E512E00BC05F980FE512E007C05E981A
:1004A00008E612E003C05D9801E712E063D1F201B3
:1004B00000810E7F72D0E1EBF0E05AD0EFEBF0E07C
:1004C000CFCF65D012E0019F40E150E0400D38D21F
:1004D000017029F031E021E0820120D13CC021E00F
:1004E000820103D138C03BD0802F480159010FEF62
:1004F000800E901EA01EB01E44E66BDF082FF3D0C6
:10050000C801D90144E665DF84019501ECD080176C
:100510009107A207B307F9F0E8ECF0E023D02AD165
:1005200045D0E1EDF0E05FD34CE354DF8C019D0159
:10053000DAD01CE3019F8019F201108134D01E5CD7
:100540001A87005D098B52D2005D0B8B4FD2405D44
:100550004C8B14D00FD16796ECE00C94420B0381C6
:100560000C94A9088E0149E00DD00D830C2F08953D
:1005700089014EE007D00A8701D0FCC08E01075FD9
:100580001F4F089532D3F20104D00E5C089500E0AD
:100590000283008102950F700895008303D022E04A
:1005A00040D104C0102F12951F7008959E01275F3F
:1005B0003F4F0895D8D06297FBD029F00A9541F0BB
:1005C0000A9591F135C092D099F501E09CD030C0E8
:1005D0003130C9F48BD061F581D08AD049F501E082
:1005E000FD010283E3DFEBE3F1E0890149E088D01C
:1005F0000E5C0E87C3DF1ED0D9F030E020E004810E
:1006000015818CD015C00C9100FD12C06FD081F403
:1006100065D06ED069F401E0FD010283E4E4F1E00D
:100620006AD008D029F0E9CF61D011F4222369F211
:10063000629686C09FD0FD01418150E00CE3EDD26F
:1006400044D0C5D20E94B10AA801B901EA2F5ED0F8
:10065000FD0104811581012B0895A7D029F00A9589
:1006600049F00A95C1F030C041D071F502E0028333
:10067000AFDE29C03BD041F531D03AD029F502E0B8
:10068000FD0141D0FD0104811581202F212BE1F0D6
:1006900020E02BD019C00C9100FF16C027D0A1F488
:1006A000222391F4EDE4F1E026D064D002E0FD01D4
:1006B0000283418150E00CE3B0D207D088D213D03E
:1006C000A801B901EA2F22D03AC0212F220F220B14
:1006D000322F48EE53E07EDE0C94910A1496ED9191
:1006E000FC91159708950C94B10AB7CFEA2FF12F1A
:1006F00002810023089502D00E5C37CF8E0149E0BD
:1007000074D20C9147CF028340E063DE03810C94E6
:100710009E08F801308130FDE8CF30E04BCF45D066
:1007200029F00A9531F00A9539F009C0EFEDF0E0B3
:1007300005C0E8EEF0E002C0E1EFF0E017D0299646
:10074000A991B99108950FD02997D8010C91017002
:1007500019F00A9521F006C0EAEFF0E002C0E3E0EC
:10076000F1E004D0ECCFBA93AA930895C7DF005DFF
:100770000D830C2F0C947806F6DF2C9719D029F0F6
:100780000A9531F00A9539F00EC0ECE0F1E005C0B1
:10079000E8E1F1E002C0E4E2F1E08E014CE0B0DF1C
:1007A000005D0A8317D22C96CBCFBA93AA932997D0
:1007B000D8010C9106950370089516D1802FF80189
:1007C000E8DE42E00E945F0A442331F1E82FF12F76
:1007D00000810670008181F4097F04600083A82FE6
:1007E000B12F1696ED91FC910081097F0083E82FCF
:1007F000F12F13D0026008C0DDDF023069F4008100
:10080000097F00830AD0097F0C930081CBDE22E0B0
:1008100008D003D0C7DE05D0E4C0A681B7810C9113
:100820000895129F40E150E0400D0C94440A9BDF74
:100830002B97D801E0E3F1E08E014BE0D6D10D918A
:10084000A9DE0E5C09830C91005D0887C3D12B964D
:1008500077CFF8012181293010F4239501C020E0E1
:100860002183218141E150E094DE12E0019F400D9F
:10087000022FDBCFF80173CEB7D004B1076004B903
:100880000AB1006E0AB905B1087F05B90BB10F7145
:100890000BB980E0A8EBB2E0082F0ED10A0F1B1FA6
:1008A0008EDD5DD0C8F300EC12E0FD0104831583FA
:1008B00000E00487058700ED12E0048B158B00E053
:1008C000048F058F00EE12E004A315A300E004A737
:1008D00005A706830783A687B787068B078B08ECD7
:1008E00012E0068F178F00E006A307A308ED12E0C1
:1008F00006A717A74EE150E023D00093B40220E0F2
:10090000422F89D1A8EEB2E0A00FB11FC3D017D0FB
:100910000C9330E002E0309FAB01400D511D77D1C8
:10092000FD01E00DF11D028313833395383090F300
:100930002395263028F301E00093B50252C0AB01A5
:100940000C94330A15D017D0EADE09D0E0F305C0C5
:100950000FD011D0F8DE03D0E0F38991089583958C
:100960008630089505D007D007DFF9DFE0F3F5CF33
:100970008A9380E00895082F9FD028EB32E0020F81
:10098000131F0895F5DFF7DF52DFE9DFE0F3E5CF6E
:10099000EFDFF1DF22DDE3DFE0F3DFCF25D02F97BC
:1009A0000091AF020023E1F0E8E6F0E08E014FE0B5
:1009B0001CD18091B2021AD0942F18D0A02F809110
:1009C000B30214D0B42F12D0005D0887B05DB98790
:1009D000A05DAB87905D9C87FDD000E00093AF02E7
:1009E0002F96E4E00C944A0B0C943D0B4AE0082F40
:1009F0000C94510A0E943E0B0091B002002309F4AE
:100A000046C04091B30250E00CE307D1C801009109
:100A1000B202800F951FA0E0E0E04A2FFCD03AD050
:100A200008C0AB0144D0D9F4803A05E09007E0F06B
:100A3000E395F0E084DF12E0019FE015F105A4F4F6
:100A4000E19F9B01200D311D7ADF019F0FEF000E0A
:100A5000101EE015F10531F4A90129D011F31FD0C2
:100A600038F702C01CD020F70A2F26D0980108EBD7
:100A700012E0020F131FE0FB1EF021E036DE01C082
:100A800018D0A395A63040F200E00093B002E3E056
:100A90000C944B0B60E370E0600F711F08952E5FA4
:100AA0003F4FA9010E94360A801791070895AFD0E1
:100AB000D2CD30E021E032CE10E043E00C94770A52
:100AC00001E04EE150E003C000E04EE150E0ADDE59
:100AD0000093B40208950091B402002319F400E0D9
:100AE00012E048DE0091B402013019F407E012E090
:100AF00041DE08950E943B0BA397102E0093B7028E
:100B00009E012B5E3F4FE7E7F0E06DD0412D84D092
:100B100080E390E0800F911FAC0112DF005D09A31C
:100B20008E010B5E1F4F26DEE5E8F0E08E0145E109
:100B30005CD0A0E0B0E00A2F0F5C0A878D01000FA7
:100B4000111FAC01400F511F62D028010AE040166E
:100B500000E0500628F4042D005D088B00E0098BAE
:100B6000E42DF12F3A97EA35F04048F430D0042DC7
:100B70004CD0005D088B30D0498B00E00A8B82019D
:100B8000045610400438134030F421D0820130D094
:100B9000280125D00B8B8201085E1340093B1140D0
:100BA00050F41AD04B8B13D082012FD028010FD0D4
:100BB0001FD015D00C8B8E01DDDD1196A83000E022
:100BC000B0070CF4B8CFA396E6E00C94480B4AE0CB
:100BD00050E008950C2FCECD16D0405D089510D072
:100BE000488B00E0089589014EE050E00C94220B00
:100BF0000CD0405D4A8B07D0280102D0498B03C03E
:100C0000E6DF03D0EACFE3DF82010C947D0A4E5F7A
:100C10005F4F0C94360A50E002E110E00C946F0A2A
:100C2000E3DE602FC9014091B702F5DFA0E3B0E039
:100C3000A00FB11F062FEAE5F1E00C94DD0A082FA2
:100C4000AD01F3DD13C012960DC014960BC01696BD
:100C500009C0189607C01A9605C01C9603C01E96B8
:100C600001C050968C01AD010E94480ABACE00E046
:100C700012EC21E030E00E94E8080E946A080E941D
:100C8000F1070E943C040E942801789408958A93F9
:100C9000EEDF0E948308802F4CE251E060E070E0BC
:100CA0000E949E08082F0E94A908012B022B032BEB
:100CB000C9F70E946B050E94A20403C012D009F07C
:100CC0000CD00091B4020023C9F30A95D1F709D0E2
:100CD000C1F303D00E94FA04F4CF0E94C8040C941C
:100CE000CE040E94F4070091B502002308950895F0
:100CF000BA93AA932497E6E5F1E045915591659161
:100D00007491488359836A837B83D8010E94D409F4
:100D10000023E1F30D91002319F00E948A09FACF14
:100D2000DE0102C00E948A090D910023D9F70E94BA
:100D3000A1092496CCC101E00093B60208950E9457
:100D40003C0BD801F8010181013009F047C0028154
:100D50000A9589F00A95A9F00A95B9F00A95C9F0A3
:100D60000A95D9F00A95E9F00950F9F00A9599F138
:100D70000A9551F133C021E008EB12E00E9489038B
:100D80002DC021E000EC12E0F9CF21E008EC12E0E8
:100D9000F5CF21E000ED12E0F1CF21E008ED12E007
:100DA000EDCF21E000EE12E0E9CFABD0B6D0F4F306
:100DB00040FAA6F00AE712E0FED00E946005FFD0DC
:100DC00001E00093B0020AC09CD0A7D0F4F340FA2F
:100DD0002EF09BD003C008E812E0EDD08FD0023097
:100DE00079F402810F3009F086C08BD096D0F4F3ED
:100DF00040FA36F00FE812E0DED00E946405DFD042
:100E00007DD0033009F068C002810A9559F00A9537
:100E100061F00A9569F00A9571F00A9579F00A95E2
:100E200081F014C008EB12E00EC000EC12E00BC021
:100E300008EC12E008C000ED12E005C008ED12E079
:100E400002C000EE12E00E94DD0365D0FD010281C8
:100E5000095069F00A9589F00A9591F00A9599F080
:100E60000A95A1F00A95A9F00250B1F016C008EB5E
:100E700012E00E9429044DD010C000EC12E0F9CF1E
:100E800008EC12E0F6CF00ED12E0F3CF08ED12E02F
:100E9000F0CF00EE12E0EDCF8FD0FD0102810751BF
:100EA00059F00A9559F00A9559F00A9559F00A95A2
:100EB00059F00A9559F010C000E009C001E007C0E0
:100EC00002E005C003E003C004E001C005E00E94A9
:100ED0007A0506E912E06FD011D0043029F40281BE
:100EE000033049F469D015D009D0053021F40281CE
:100EF000073009F40AD0E5E00C94490BFD010181AB
:100F00000895442480E090E0089501E812E053D071
:100F100002D00C94C2040C94B20443E08C010E94F1
:100F2000770A28EB32E0020F131F0E943A040023D5
:100F300011F0442443940196863000E09007089510
:100F40008A9340917803242F2053295000F12B518C
:100F500069F5F801818112814CE350E0082F0E946D
:100F60007D0A0093B3021091B3020CE3109F801925
:100F70008093B20200E00093B102EFEAF2E005E0F4
:100F800010E00E942D0B0E94630116D00EC0F801E4
:100F900021813281042F0E941006009178030833CA
:100FA00029F401E812E007D0B6DFB3DF00E00093D8
:100FB0007803899108959CCE0FE812E0FCDF0E942F
:100FC000A2040C94A804F801018100937803089509
:100FD0000895E4E5F3E000E000A302A301A303A366
:100FE0000895F7DF00E0F1CFBA93AA93A4E5B3E048
:100FF00000917503002339F0025049F10A9559F127
:101000000A95C1F139C00E94D109002301F10E9463
:101010007E090023E9F00E946E09E0917403F0E07C
:10102000EC5AFC4F0083FD0100A1039500A310E0E2
:1010300025D031F428D021F4FD0102A1039502A3AB
:1010400000917603023019F403E0009375033FC06A
:101050000E94DA09F9CF0091740310E0FD010ED06F
:1010600059F411D049F413D0339700810F3F21F484
:1010700004E0EBCF8D0111D0ACDFE9CFE00FF11F21
:1010800002910F3F089503D032970081FACF00916B
:101090007403FD01E00FF11F0895BA93AA93D801DC
:1010A00040E001C0439550E003E010E00E946F0A69
:1010B000EDE9F2E0E00FF11F00810F3F19F01C9104
:1010C000011781F78D012181F281E22F0995A99104
:1010D000B99108950091B10007600093B10000E953
:1010E0000093B3000091700002600093700040E034
:1010F00050E01AD01CD05083518301E00283439505
:101100004A30B8F3089540E009D019F05283042F13
:10111000089543954A30C0F300E0089504D007D005
:1011200002810023089550E003E010E008950E943A
:101130006F0AE9E7F3E0E00FF11F08959C01CA018F
:101140000A3028F4402FEADF11F480839183C9012B
:10115000089505D00081118120E030E00895402FEE
:10116000E2DF0E946F0AF801E758FC4F08959A9356
:101170008A93FA93EA931A920A925A934A932A9379
:101180001A930A932FB700E00093B20080E090E03A
:10119000CBDFAC01C4DF51F400811181012B31F0B0
:1011A00000811181015010400083118301968A3023
:1011B00000E0900768F32FBF099119912991499197
:1011C000599109901990E991F991899199911895FE
:1011D0009A93F82F40E040931804409317044093EB
:1011E0009A044093990440939C0440939B04A80163
:1011F000B90100E010E12EE030E00E94B10AC80120
:1012000001979093C5008093C4005A9808ED00930D
:10121000C10005B5056005BD0FE606BD00916E0075
:10122000016000936E008F2F99910895FA93EA93CD
:1012300029D03FB700919B040023C9F40FE606BDF7
:1012400005B5056005BD2091C60000911704039502
:101250000F7710911804011729F410D005B50A7FF3
:1012600005BD07C00093170444D0208302C000913D
:10127000C6003FBF2ED0E991F991189501E0009387
:101280009B0408953A932A931A930A9308958A9394
:10129000FA93EA933A922A921A920A927A936A936A
:1012A0005A934A93EFDF8FB729D0002309F0E6DF86
:1012B00005B50A7F05BD8FBF0CD049915991699141
:1012C00079910990199029903990E991F991899132
:1012D0001895099119912991399108950091170450
:1012E0000091180403950F770093180402D0008131
:1012F0000895F0E0E02FE956FC4F0895009117049F
:1013000010911804011709F001C002C001E008950E
:1013100000E0089510919C04112341F41091990468
:1013200013951F7720919A04121709F4EFCF1093A9
:10133000990420919904F0E0E22FE75EFB4F0083CF
:10134000E7CF01E000939C045A9A0091C10000622B
:101350000093C1000895FA93EA9395DF2FB70091A7
:10136000990410919A04011771F000919A04039561
:101370000F7700939A04F0E0E02FE75EFB4F0081C7
:101380000093C60009C00091C1000F7D0093C10009
:101390005A9800E000939C042FBF0991199129915C
:1013A0006ACF00919B04089500919C04002309F4E6
:1013B000ADCFAECF00E063CF08959A938A93229782
:1013C000C801888399839E0101E00E94DC09F9CF5E
:1013D0000C94DD090E94390BD801290182E03D01FE
:1013E00009C002E0600E711E823081F002E0600EE2
:1013F00000E0701E6414750479F0F30125913491B6
:1014000010E02030304069F3823081F3F301059120
:10141000F491E02F0995EACF8A9509F7E8E00C945A
:10142000460B0FEF0DBF01E00EBFC0E8D1E00E94F8
:10143000530B002311F00E94630B02E711E024E735
:1014400031E00E94EA090E9447060E944F0A0C946C
:10145000E809F999FECF08954F5F5F4FFADF41BD6C
:1014600052BDF89A0895FADF00B50895F7DF00B588
:10147000F3DF10B508954F5F5F4F41BD52BDF89443
:10148000FA9AF99A0FBE08950FB6E3DF00BDF5CFC3
:101490000FB6DFDF00BDF1DFDCDF10BDECCF0C9459
:1014A000E8090024E8E0EA9532F0001F001C041669
:1014B000D0F3041AF8CF001F402D00950895FF27A0
:1014C000442312F4F1604195002312F4F095019544
:1014D0000E94510AF0FD0195F1FD41950895149F78
:1014E000102D059F100D049F002D110D08954A9594
:1014F0001AF0000F111FFBCF089500241124EFE014
:10150000001F111F001C111C0416150610F0041AF0
:10151000150AEA95AAF7001F111FA0010095109562
:1015200008952224349F302D259F300D169F300DB5
:10153000079F300D249F202D310D159F200D311D4B
:10154000069F200D311D149F102D210D321D059F6A
:10155000100D211D321D049F002D110D221D321D65
:101560000895002411241001E0E2EA9592F0001F92
:10157000111F221F331F001C111C221C331C0416B8
:1015800015062606370688F3041A150A260A370AAE
:10159000ECCF001F111F221F331FA001B1010095C6
:1015A00010952095309508957591659155914591C7
:1015B000159011FA259035900895F9DF041B10E07D
:1015C00003C0F4DF041B150B20E030E005C0ECDFA6
:1015D000041B150B260B370BB8F010FC17C04591F8
:1015E0000590E00FF11F0417100540E024073407B1
:1015F00058F436F404910024F101E01BF009099439
:10160000E00FF11F25903590F101099411F4D6F700
:10161000F1CF31960EF0319650E060E070E04591E8
:101620004B3F48F089F34F3F29F04E3F11F0759141
:10163000659155914591041B150B260B370B39F31A
:1016400018F3E7CFAF93BF93D80105900D924150A7
:101650005040D9F7BF91AF910895E00FF11F02906C
:101660000A9201501040D9F70895BA92AA929A921C
:101670008A927A926A925A924A92BA93AA939A93C7
:101680008A930895BB84AA84998488847F806E801D
:101690005D804C80BB81AA8199818881F0E0EC0F4C
:1016A000FD1FEF01089501E0089520E006D0E9F75D
:1016B0000895259102D0E9F708952D930150104027
:1016C000202F212B08958AEF96E1FC0105911491BA
:1016D000FC013296A591B491FC0134962591349188
:1016E000422F432B19F0F901E4DF01C0DEDF06963B
:1016F00017E18630910748F30895EE01AF0200002C
:10170000AF000002061770616765203100706167E5
:10171000652032007669732070302C310076697351
:101720002070312C31007669732070322C310076B4
:1017300069732070332C31007669732070342C313A
:10174000007669732070352C310076697320703013
:101750002C30007669732070312C3000766973204C
:1017600070322C30007669732070332C300076692B
:10177000732070342C30007669732070352C300063
:1017800070616765203200706167652033007061A9
:10179000676520340070616765203100706167659E
:1017A000203500659F0671A00770E307889B061A25
:0517B000E807FF7706C9
:00000001FF
:00000001FF
