:100000000C94CE0018951895189518951895189574
:100010001895189518951895189518950C949B0097
:100020001895189518951895189518951895189568
:100030001895189518951895189518951895189558
:100040001895189518951895189518951895189548
:100050001895189518951895189518951895189538
:1000600018951895189518950E944E00229A2A986E
:10007000789408958A93F8DF0E946700802F46E203
:1000800051E060E070E00E948200082F0E948D0025
:10009000012B022B032BC9F72A9AF7CF0091B1004D
:1000A00007600093B10004EF0093B300009170006B
:1000B00002600093700040E050E01AD01CD05083E2
:1000C000518301E0028343954A30B8F3089540E03C
:1000D00009D019F05283042F089543954A30C0F394
:1000E00000E0089504D007D002810023089550E075
:1000F00003E010E008950E94E200E0E4F1E0E00F88
:10010000F11F08959C01CA010A3028F4402FEADF4C
:1001100011F480839183C901089505D00081118174
:1001200020E030E00895402FE2DF0E94E200F80175
:10013000E05CFE4F08959A938A93FA93EA931A9299
:100140000A925A934A932A931A930A932FB700E07C
:100150000093B20080E090E0CBDFAC01C4DF51F44B
:1001600000811181012B31F000811181015010407B
:100170000083118301968A3000E0900768F32FBF57
:100180000991199129914991599109901990E991F1
:10019000F9918991999118950C9414010FE30DBF71
:1001A00001E00EBFC0E2D1E00E94EA00002311F09E
:1001B0000E94FA000E943A000E94E0000C94CC00D9
:1001C0000C94CC00149F102D059F100D049F002D42
:1001D000110D089501E0089520E006D0E9F7089593
:1001E000259102D0E9F708952D9301501040202F5A
:1001F000212B08958AE292E0FC0105911491FC0103
:100200003296A591B491FC01349625913491422FF8
:10021000432B19F0F901E4DF01C0DEDF069612E09E
:100220008033910748F30895FFCF1E00400100007E
:00000001FF
